{
  "_format": "hh-sol-artifact-1",
  "contractName": "picParadise",
  "sourceName": "contracts/picParadise.sol",
  "abi": [
    {
      "anonymous": false,
      "inputs": [
        {
          "indexed": false,
          "internalType": "uint256",
          "name": "id",
          "type": "uint256"
        },
        {
          "indexed": false,
          "internalType": "string",
          "name": "title",
          "type": "string"
        },
        {
          "indexed": false,
          "internalType": "address",
          "name": "owner",
          "type": "address"
        }
      ],
      "name": "PhotoAdded",
      "type": "event"
    },
    {
      "anonymous": false,
      "inputs": [
        {
          "indexed": false,
          "internalType": "uint256",
          "name": "id",
          "type": "uint256"
        },
        {
          "indexed": false,
          "internalType": "string",
          "name": "title",
          "type": "string"
        },
        {
          "indexed": false,
          "internalType": "address",
          "name": "owner",
          "type": "address"
        },
        {
          "indexed": false,
          "internalType": "uint256",
          "name": "price",
          "type": "uint256"
        }
      ],
      "name": "PhotoPurchased",
      "type": "event"
    },
    {
      "inputs": [
        {
          "internalType": "string",
          "name": "_title",
          "type": "string"
        },
        {
          "internalType": "string",
          "name": "_description",
          "type": "string"
        },
        {
          "internalType": "string",
          "name": "_ipfsHash",
          "type": "string"
        }
      ],
      "name": "addPhoto",
      "outputs": [],
      "stateMutability": "nonpayable",
      "type": "function"
    },
    {
      "inputs": [
        {
          "internalType": "address",
          "name": "",
          "type": "address"
        }
      ],
      "name": "balances",
      "outputs": [
        {
          "internalType": "uint256",
          "name": "",
          "type": "uint256"
        }
      ],
      "stateMutability": "view",
      "type": "function"
    },
    {
      "inputs": [],
      "name": "getAllPhotos",
      "outputs": [
        {
          "components": [
            {
              "internalType": "uint256",
              "name": "id",
              "type": "uint256"
            },
            {
              "internalType": "string",
              "name": "title",
              "type": "string"
            },
            {
              "internalType": "string",
              "name": "description",
              "type": "string"
            },
            {
              "internalType": "address",
              "name": "owner",
              "type": "address"
            },
            {
              "internalType": "string",
              "name": "ipfsHash",
              "type": "string"
            }
          ],
          "internalType": "struct picParadise.Photo[]",
          "name": "",
          "type": "tuple[]"
        }
      ],
      "stateMutability": "view",
      "type": "function"
    },
    {
      "inputs": [
        {
          "internalType": "uint256",
          "name": "",
          "type": "uint256"
        }
      ],
      "name": "photos",
      "outputs": [
        {
          "internalType": "uint256",
          "name": "id",
          "type": "uint256"
        },
        {
          "internalType": "string",
          "name": "title",
          "type": "string"
        },
        {
          "internalType": "string",
          "name": "description",
          "type": "string"
        },
        {
          "internalType": "address",
          "name": "owner",
          "type": "address"
        },
        {
          "internalType": "string",
          "name": "ipfsHash",
          "type": "string"
        }
      ],
      "stateMutability": "view",
      "type": "function"
    }
  ],
  "bytecode": "0x608060405234801561001057600080fd5b50610fa3806100206000396000f3fe608060405234801561001057600080fd5b506004361061004c5760003560e01c806327e235e31461005157806348c3117114610081578063af2a5d6f1461009f578063b3ebaa90146100d3575b600080fd5b61006b600480360381019061006691906108b1565b6100ef565b60405161007891906108f7565b60405180910390f35b610089610107565b6040516100969190610b0f565b60405180910390f35b6100b960048036038101906100b49190610b5d565b6103f0565b6040516100ca959493929190610be3565b60405180910390f35b6100ed60048036038101906100e89190610d80565b6105ee565b005b60016020528060005260406000206000915090505481565b606060008080549050905060008167ffffffffffffffff81111561012e5761012d610c55565b5b60405190808252806020026020018201604052801561016757816020015b610154610757565b81526020019060019003908161014c5790505b50905060005b828110156103e7576000818154811061018957610188610e27565b5b90600052602060002090600502016040518060a0016040529081600082015481526020016001820180546101bc90610e85565b80601f01602080910402602001604051908101604052809291908181526020018280546101e890610e85565b80156102355780601f1061020a57610100808354040283529160200191610235565b820191906000526020600020905b81548152906001019060200180831161021857829003601f168201915b5050505050815260200160028201805461024e90610e85565b80601f016020809104026020016040519081016040528092919081815260200182805461027a90610e85565b80156102c75780601f1061029c576101008083540402835291602001916102c7565b820191906000526020600020905b8154815290600101906020018083116102aa57829003601f168201915b505050505081526020016003820160009054906101000a900473ffffffffffffffffffffffffffffffffffffffff1673ffffffffffffffffffffffffffffffffffffffff1673ffffffffffffffffffffffffffffffffffffffff16815260200160048201805461033690610e85565b80601f016020809104026020016040519081016040528092919081815260200182805461036290610e85565b80156103af5780601f10610384576101008083540402835291602001916103af565b820191906000526020600020905b81548152906001019060200180831161039257829003601f168201915b5050505050815250508282815181106103cb576103ca610e27565b5b6020026020010181905250806103e090610ee6565b905061016d565b50809250505090565b6000818154811061040057600080fd5b906000526020600020906005020160009150905080600001549080600101805461042990610e85565b80601f016020809104026020016040519081016040528092919081815260200182805461045590610e85565b80156104a25780601f10610477576101008083540402835291602001916104a2565b820191906000526020600020905b81548152906001019060200180831161048557829003601f168201915b5050505050908060020180546104b790610e85565b80601f01602080910402602001604051908101604052809291908181526020018280546104e390610e85565b80156105305780601f1061050557610100808354040283529160200191610530565b820191906000526020600020905b81548152906001019060200180831161051357829003601f168201915b5050505050908060030160009054906101000a900473ffffffffffffffffffffffffffffffffffffffff169080600401805461056b90610e85565b80601f016020809104026020016040519081016040528092919081815260200182805461059790610e85565b80156105e45780601f106105b9576101008083540402835291602001916105e4565b820191906000526020600020905b8154815290600101906020018083116105c757829003601f168201915b5050505050905085565b60006040518060a0016040528060008054905081526020018581526020018481526020013373ffffffffffffffffffffffffffffffffffffffff168152602001838152509050600081908060018154018082558091505060019003906000526020600020906005020160009091909190915060008201518160000155602082015181600101908051906020019061068692919061079c565b5060408201518160020190805190602001906106a392919061079c565b5060608201518160030160006101000a81548173ffffffffffffffffffffffffffffffffffffffff021916908373ffffffffffffffffffffffffffffffffffffffff160217905550608082015181600401908051906020019061070792919061079c565b5050507f8f2007e99e4e2d6d7f3d40d6357e851881550782a9eb108e70085686f39e840381600001518260200151836060015160405161074993929190610f2f565b60405180910390a150505050565b6040518060a00160405280600081526020016060815260200160608152602001600073ffffffffffffffffffffffffffffffffffffffff168152602001606081525090565b8280546107a890610e85565b90600052602060002090601f0160209004810192826107ca5760008555610811565b82601f106107e357805160ff1916838001178555610811565b82800160010185558215610811579182015b828111156108105782518255916020019190600101906107f5565b5b50905061081e9190610822565b5090565b5b8082111561083b576000816000905550600101610823565b5090565b6000604051905090565b600080fd5b600080fd5b600073ffffffffffffffffffffffffffffffffffffffff82169050919050565b600061087e82610853565b9050919050565b61088e81610873565b811461089957600080fd5b50565b6000813590506108ab81610885565b92915050565b6000602082840312156108c7576108c6610849565b5b60006108d58482850161089c565b91505092915050565b6000819050919050565b6108f1816108de565b82525050565b600060208201905061090c60008301846108e8565b92915050565b600081519050919050565b600082825260208201905092915050565b6000819050602082019050919050565b610947816108de565b82525050565b600081519050919050565b600082825260208201905092915050565b60005b8381101561098757808201518184015260208101905061096c565b83811115610996576000848401525b50505050565b6000601f19601f8301169050919050565b60006109b88261094d565b6109c28185610958565b93506109d2818560208601610969565b6109db8161099c565b840191505092915050565b6109ef81610873565b82525050565b600060a083016000830151610a0d600086018261093e565b5060208301518482036020860152610a2582826109ad565b91505060408301518482036040860152610a3f82826109ad565b9150506060830151610a5460608601826109e6565b5060808301518482036080860152610a6c82826109ad565b9150508091505092915050565b6000610a8583836109f5565b905092915050565b6000602082019050919050565b6000610aa582610912565b610aaf818561091d565b935083602082028501610ac18561092e565b8060005b85811015610afd5784840389528151610ade8582610a79565b9450610ae983610a8d565b925060208a01995050600181019050610ac5565b50829750879550505050505092915050565b60006020820190508181036000830152610b298184610a9a565b905092915050565b610b3a816108de565b8114610b4557600080fd5b50565b600081359050610b5781610b31565b92915050565b600060208284031215610b7357610b72610849565b5b6000610b8184828501610b48565b91505092915050565b600082825260208201905092915050565b6000610ba68261094d565b610bb08185610b8a565b9350610bc0818560208601610969565b610bc98161099c565b840191505092915050565b610bdd81610873565b82525050565b600060a082019050610bf860008301886108e8565b8181036020830152610c0a8187610b9b565b90508181036040830152610c1e8186610b9b565b9050610c2d6060830185610bd4565b8181036080830152610c3f8184610b9b565b90509695505050505050565b600080fd5b600080fd5b7f4e487b7100000000000000000000000000000000000000000000000000000000600052604160045260246000fd5b610c8d8261099c565b810181811067ffffffffffffffff82111715610cac57610cab610c55565b5b80604052505050565b6000610cbf61083f565b9050610ccb8282610c84565b919050565b600067ffffffffffffffff821115610ceb57610cea610c55565b5b610cf48261099c565b9050602081019050919050565b82818337600083830152505050565b6000610d23610d1e84610cd0565b610cb5565b905082815260208101848484011115610d3f57610d3e610c50565b5b610d4a848285610d01565b509392505050565b600082601f830112610d6757610d66610c4b565b5b8135610d77848260208601610d10565b91505092915050565b600080600060608486031215610d9957610d98610849565b5b600084013567ffffffffffffffff811115610db757610db661084e565b5b610dc386828701610d52565b935050602084013567ffffffffffffffff811115610de457610de361084e565b5b610df086828701610d52565b925050604084013567ffffffffffffffff811115610e1157610e1061084e565b5b610e1d86828701610d52565b9150509250925092565b7f4e487b7100000000000000000000000000000000000000000000000000000000600052603260045260246000fd5b7f4e487b7100000000000000000000000000000000000000000000000000000000600052602260045260246000fd5b60006002820490506001821680610e9d57607f821691505b60208210811415610eb157610eb0610e56565b5b50919050565b7f4e487b7100000000000000000000000000000000000000000000000000000000600052601160045260246000fd5b6000610ef1826108de565b91507fffffffffffffffffffffffffffffffffffffffffffffffffffffffffffffffff821415610f2457610f23610eb7565b5b600182019050919050565b6000606082019050610f4460008301866108e8565b8181036020830152610f568185610b9b565b9050610f656040830184610bd4565b94935050505056fea2646970667358221220fef4965fce503609c32daed7252990b235094c92bbcfe15fcacdb24cfeee81d564736f6c63430008090033",
  "linkReferences": {},
  "deployedLinkReferences": {}
}