{
  "_format": "hh-sol-artifact-1",
  "contractName": "picParadise",
  "sourceName": "contracts/picParadise.sol",
  "abi": [
    {
      "anonymous": false,
      "inputs": [
        {
          "indexed": false,
          "internalType": "uint256",
          "name": "id",
          "type": "uint256"
        },
        {
          "indexed": false,
          "internalType": "string",
          "name": "title",
          "type": "string"
        },
        {
          "indexed": false,
          "internalType": "address",
          "name": "owner",
          "type": "address"
        }
      ],
      "name": "PhotoAdded",
      "type": "event"
    },
    {
      "anonymous": false,
      "inputs": [
        {
          "indexed": false,
          "internalType": "uint256",
          "name": "id",
          "type": "uint256"
        },
        {
          "indexed": false,
          "internalType": "string",
          "name": "title",
          "type": "string"
        },
        {
          "indexed": false,
          "internalType": "address",
          "name": "owner",
          "type": "address"
        },
        {
          "indexed": false,
          "internalType": "uint256",
          "name": "price",
          "type": "uint256"
        }
      ],
      "name": "PhotoPurchased",
      "type": "event"
    },
    {
      "inputs": [
        {
          "internalType": "string",
          "name": "_title",
          "type": "string"
        },
        {
          "internalType": "string",
          "name": "_description",
          "type": "string"
        },
        {
          "internalType": "uint256",
          "name": "_price",
          "type": "uint256"
        },
        {
          "internalType": "string",
          "name": "_ipfsHash",
          "type": "string"
        }
      ],
      "name": "addPhoto",
      "outputs": [],
      "stateMutability": "nonpayable",
      "type": "function"
    },
    {
      "inputs": [
        {
          "internalType": "address",
          "name": "",
          "type": "address"
        }
      ],
      "name": "balances",
      "outputs": [
        {
          "internalType": "uint256",
          "name": "",
          "type": "uint256"
        }
      ],
      "stateMutability": "view",
      "type": "function"
    },
    {
      "inputs": [
        {
          "internalType": "uint256",
          "name": "_id",
          "type": "uint256"
        }
      ],
      "name": "buyPhoto",
      "outputs": [],
      "stateMutability": "payable",
      "type": "function"
    },
    {
      "inputs": [],
      "name": "getAllPhotos",
      "outputs": [
        {
          "components": [
            {
              "internalType": "uint256",
              "name": "id",
              "type": "uint256"
            },
            {
              "internalType": "string",
              "name": "title",
              "type": "string"
            },
            {
              "internalType": "string",
              "name": "description",
              "type": "string"
            },
            {
              "internalType": "address",
              "name": "owner",
              "type": "address"
            },
            {
              "internalType": "uint256",
              "name": "price",
              "type": "uint256"
            },
            {
              "internalType": "string",
              "name": "ipfsHash",
              "type": "string"
            }
          ],
          "internalType": "struct picParadise.Photo[]",
          "name": "",
          "type": "tuple[]"
        }
      ],
      "stateMutability": "view",
      "type": "function"
    },
    {
      "inputs": [
        {
          "internalType": "uint256",
          "name": "",
          "type": "uint256"
        }
      ],
      "name": "photos",
      "outputs": [
        {
          "internalType": "uint256",
          "name": "id",
          "type": "uint256"
        },
        {
          "internalType": "string",
          "name": "title",
          "type": "string"
        },
        {
          "internalType": "string",
          "name": "description",
          "type": "string"
        },
        {
          "internalType": "address",
          "name": "owner",
          "type": "address"
        },
        {
          "internalType": "uint256",
          "name": "price",
          "type": "uint256"
        },
        {
          "internalType": "string",
          "name": "ipfsHash",
          "type": "string"
        }
      ],
      "stateMutability": "view",
      "type": "function"
    }
  ],
  "bytecode": "0x608060405234801561001057600080fd5b50611439806100206000396000f3fe60806040526004361061004a5760003560e01c806327e235e31461004f5780632aea45171461008c57806348c31171146100b5578063af2a5d6f146100e0578063b2bf582614610122575b600080fd5b34801561005b57600080fd5b5061007660048036038101906100719190610b03565b61013e565b6040516100839190610b49565b60405180910390f35b34801561009857600080fd5b506100b360048036038101906100ae9190610cd6565b610156565b005b3480156100c157600080fd5b506100ca6102d0565b6040516100d79190610f90565b60405180910390f35b3480156100ec57600080fd5b5061010760048036038101906101029190610fb2565b6105c3565b60405161011996959493929190611038565b60405180910390f35b61013c60048036038101906101379190610fb2565b6107c7565b005b60016020528060005260406000206000915090505481565b60006040518060c0016040528060008054905081526020018681526020018581526020013373ffffffffffffffffffffffffffffffffffffffff16815260200184815260200183815250905060008190806001815401808255809150506001900390600052602060002090600602016000909190919091506000820151816000015560208201518160010190805190602001906101f49291906109a2565b5060408201518160020190805190602001906102119291906109a2565b5060608201518160030160006101000a81548173ffffffffffffffffffffffffffffffffffffffff021916908373ffffffffffffffffffffffffffffffffffffffff1602179055506080820151816004015560a082015181600501908051906020019061027f9291906109a2565b5050507f8f2007e99e4e2d6d7f3d40d6357e851881550782a9eb108e70085686f39e84038160000151826020015183606001516040516102c1939291906110ae565b60405180910390a15050505050565b606060008080549050905060008167ffffffffffffffff8111156102f7576102f6610b7f565b5b60405190808252806020026020018201604052801561033057816020015b61031d610a28565b8152602001906001900390816103155790505b50905060005b828110156105ba5760008181548110610352576103516110ec565b5b90600052602060002090600602016040518060c0016040529081600082015481526020016001820180546103859061114a565b80601f01602080910402602001604051908101604052809291908181526020018280546103b19061114a565b80156103fe5780601f106103d3576101008083540402835291602001916103fe565b820191906000526020600020905b8154815290600101906020018083116103e157829003601f168201915b505050505081526020016002820180546104179061114a565b80601f01602080910402602001604051908101604052809291908181526020018280546104439061114a565b80156104905780601f1061046557610100808354040283529160200191610490565b820191906000526020600020905b81548152906001019060200180831161047357829003601f168201915b505050505081526020016003820160009054906101000a900473ffffffffffffffffffffffffffffffffffffffff1673ffffffffffffffffffffffffffffffffffffffff1673ffffffffffffffffffffffffffffffffffffffff168152602001600482015481526020016005820180546105099061114a565b80601f01602080910402602001604051908101604052809291908181526020018280546105359061114a565b80156105825780601f1061055757610100808354040283529160200191610582565b820191906000526020600020905b81548152906001019060200180831161056557829003601f168201915b50505050508152505082828151811061059e5761059d6110ec565b5b6020026020010181905250806105b3906111ab565b9050610336565b50809250505090565b600081815481106105d357600080fd5b90600052602060002090600602016000915090508060000154908060010180546105fc9061114a565b80601f01602080910402602001604051908101604052809291908181526020018280546106289061114a565b80156106755780601f1061064a57610100808354040283529160200191610675565b820191906000526020600020905b81548152906001019060200180831161065857829003601f168201915b50505050509080600201805461068a9061114a565b80601f01602080910402602001604051908101604052809291908181526020018280546106b69061114a565b80156107035780601f106106d857610100808354040283529160200191610703565b820191906000526020600020905b8154815290600101906020018083116106e657829003601f168201915b5050505050908060030160009054906101000a900473ffffffffffffffffffffffffffffffffffffffff16908060040154908060050180546107449061114a565b80601f01602080910402602001604051908101604052809291908181526020018280546107709061114a565b80156107bd5780601f10610792576101008083540402835291602001916107bd565b820191906000526020600020905b8154815290600101906020018083116107a057829003601f168201915b5050505050905086565b600080549050811061080e576040517f08c379a000000000000000000000000000000000000000000000000000000000815260040161080590611240565b60405180910390fd5b6000808281548110610823576108226110ec565b5b9060005260206000209060060201905080600401543414610879576040517f08c379a0000000000000000000000000000000000000000000000000000000008152600401610870906112ac565b60405180910390fd5b34600160008360030160009054906101000a900473ffffffffffffffffffffffffffffffffffffffff1673ffffffffffffffffffffffffffffffffffffffff1673ffffffffffffffffffffffffffffffffffffffff16815260200190815260200160002060008282546108ec91906112cc565b92505081905550338160030160006101000a81548173ffffffffffffffffffffffffffffffffffffffff021916908373ffffffffffffffffffffffffffffffffffffffff1602179055507f95cd7f2b922c0f47ccf070a497e7510f7c73f7bc2a925263fc1c25a1bf703d7d82826001018360030160009054906101000a900473ffffffffffffffffffffffffffffffffffffffff16846004015460405161099694939291906113b7565b60405180910390a15050565b8280546109ae9061114a565b90600052602060002090601f0160209004810192826109d05760008555610a17565b82601f106109e957805160ff1916838001178555610a17565b82800160010185558215610a17579182015b82811115610a165782518255916020019190600101906109fb565b5b509050610a249190610a74565b5090565b6040518060c00160405280600081526020016060815260200160608152602001600073ffffffffffffffffffffffffffffffffffffffff16815260200160008152602001606081525090565b5b80821115610a8d576000816000905550600101610a75565b5090565b6000604051905090565b600080fd5b600080fd5b600073ffffffffffffffffffffffffffffffffffffffff82169050919050565b6000610ad082610aa5565b9050919050565b610ae081610ac5565b8114610aeb57600080fd5b50565b600081359050610afd81610ad7565b92915050565b600060208284031215610b1957610b18610a9b565b5b6000610b2784828501610aee565b91505092915050565b6000819050919050565b610b4381610b30565b82525050565b6000602082019050610b5e6000830184610b3a565b92915050565b600080fd5b600080fd5b6000601f19601f8301169050919050565b7f4e487b7100000000000000000000000000000000000000000000000000000000600052604160045260246000fd5b610bb782610b6e565b810181811067ffffffffffffffff82111715610bd657610bd5610b7f565b5b80604052505050565b6000610be9610a91565b9050610bf58282610bae565b919050565b600067ffffffffffffffff821115610c1557610c14610b7f565b5b610c1e82610b6e565b9050602081019050919050565b82818337600083830152505050565b6000610c4d610c4884610bfa565b610bdf565b905082815260208101848484011115610c6957610c68610b69565b5b610c74848285610c2b565b509392505050565b600082601f830112610c9157610c90610b64565b5b8135610ca1848260208601610c3a565b91505092915050565b610cb381610b30565b8114610cbe57600080fd5b50565b600081359050610cd081610caa565b92915050565b60008060008060808587031215610cf057610cef610a9b565b5b600085013567ffffffffffffffff811115610d0e57610d0d610aa0565b5b610d1a87828801610c7c565b945050602085013567ffffffffffffffff811115610d3b57610d3a610aa0565b5b610d4787828801610c7c565b9350506040610d5887828801610cc1565b925050606085013567ffffffffffffffff811115610d7957610d78610aa0565b5b610d8587828801610c7c565b91505092959194509250565b600081519050919050565b600082825260208201905092915050565b6000819050602082019050919050565b610dc681610b30565b82525050565b600081519050919050565b600082825260208201905092915050565b60005b83811015610e06578082015181840152602081019050610deb565b83811115610e15576000848401525b50505050565b6000610e2682610dcc565b610e308185610dd7565b9350610e40818560208601610de8565b610e4981610b6e565b840191505092915050565b610e5d81610ac5565b82525050565b600060c083016000830151610e7b6000860182610dbd565b5060208301518482036020860152610e938282610e1b565b91505060408301518482036040860152610ead8282610e1b565b9150506060830151610ec26060860182610e54565b506080830151610ed56080860182610dbd565b5060a083015184820360a0860152610eed8282610e1b565b9150508091505092915050565b6000610f068383610e63565b905092915050565b6000602082019050919050565b6000610f2682610d91565b610f308185610d9c565b935083602082028501610f4285610dad565b8060005b85811015610f7e5784840389528151610f5f8582610efa565b9450610f6a83610f0e565b925060208a01995050600181019050610f46565b50829750879550505050505092915050565b60006020820190508181036000830152610faa8184610f1b565b905092915050565b600060208284031215610fc857610fc7610a9b565b5b6000610fd684828501610cc1565b91505092915050565b600082825260208201905092915050565b6000610ffb82610dcc565b6110058185610fdf565b9350611015818560208601610de8565b61101e81610b6e565b840191505092915050565b61103281610ac5565b82525050565b600060c08201905061104d6000830189610b3a565b818103602083015261105f8188610ff0565b905081810360408301526110738187610ff0565b90506110826060830186611029565b61108f6080830185610b3a565b81810360a08301526110a18184610ff0565b9050979650505050505050565b60006060820190506110c36000830186610b3a565b81810360208301526110d58185610ff0565b90506110e46040830184611029565b949350505050565b7f4e487b7100000000000000000000000000000000000000000000000000000000600052603260045260246000fd5b7f4e487b7100000000000000000000000000000000000000000000000000000000600052602260045260246000fd5b6000600282049050600182168061116257607f821691505b602082108114156111765761117561111b565b5b50919050565b7f4e487b7100000000000000000000000000000000000000000000000000000000600052601160045260246000fd5b60006111b682610b30565b91507fffffffffffffffffffffffffffffffffffffffffffffffffffffffffffffffff8214156111e9576111e861117c565b5b600182019050919050565b7f50686f746f20646f6573206e6f74206578697374000000000000000000000000600082015250565b600061122a601483610fdf565b9150611235826111f4565b602082019050919050565b600060208201905081810360008301526112598161121d565b9050919050565b7f496e636f72726563742070726963650000000000000000000000000000000000600082015250565b6000611296600f83610fdf565b91506112a182611260565b602082019050919050565b600060208201905081810360008301526112c581611289565b9050919050565b60006112d782610b30565b91506112e283610b30565b9250827fffffffffffffffffffffffffffffffffffffffffffffffffffffffffffffffff038211156113175761131661117c565b5b828201905092915050565b60008190508160005260206000209050919050565b600081546113448161114a565b61134e8186610fdf565b94506001821660008114611369576001811461137b576113ae565b60ff19831686526020860193506113ae565b61138485611322565b60005b838110156113a657815481890152600182019150602081019050611387565b808801955050505b50505092915050565b60006080820190506113cc6000830187610b3a565b81810360208301526113de8186611337565b90506113ed6040830185611029565b6113fa6060830184610b3a565b9594505050505056fea26469706673582212205856115f89728eb48f9ddfa1671debc49c57fd0a068efe32a8d4ed8ca9210c4f64736f6c63430008090033",
  "linkReferences": {},
  "deployedLinkReferences": {}
}