{
  "_format": "hh-sol-artifact-1",
  "contractName": "picParadise",
  "sourceName": "contracts/picParadise.sol",
  "abi": [
    {
      "anonymous": false,
      "inputs": [
        {
          "indexed": false,
          "internalType": "uint256",
          "name": "id",
          "type": "uint256"
        },
        {
          "indexed": false,
          "internalType": "string",
          "name": "title",
          "type": "string"
        },
        {
          "indexed": false,
          "internalType": "address",
          "name": "owner",
          "type": "address"
        }
      ],
      "name": "PhotoAdded",
      "type": "event"
    },
    {
      "anonymous": false,
      "inputs": [
        {
          "indexed": false,
          "internalType": "uint256",
          "name": "id",
          "type": "uint256"
        },
        {
          "indexed": false,
          "internalType": "string",
          "name": "title",
          "type": "string"
        },
        {
          "indexed": false,
          "internalType": "address",
          "name": "owner",
          "type": "address"
        },
        {
          "indexed": false,
          "internalType": "uint256",
          "name": "price",
          "type": "uint256"
        }
      ],
      "name": "PhotoPurchased",
      "type": "event"
    },
    {
      "inputs": [
        {
          "internalType": "string",
          "name": "_title",
          "type": "string"
        },
        {
          "internalType": "string",
          "name": "_description",
          "type": "string"
        },
        {
          "internalType": "uint256",
          "name": "_price",
          "type": "uint256"
        },
        {
          "internalType": "bytes32",
          "name": "_ipfsHash",
          "type": "bytes32"
        }
      ],
      "name": "addPhoto",
      "outputs": [],
      "stateMutability": "nonpayable",
      "type": "function"
    },
    {
      "inputs": [
        {
          "internalType": "address",
          "name": "",
          "type": "address"
        }
      ],
      "name": "balances",
      "outputs": [
        {
          "internalType": "uint256",
          "name": "",
          "type": "uint256"
        }
      ],
      "stateMutability": "view",
      "type": "function"
    },
    {
      "inputs": [
        {
          "internalType": "uint256",
          "name": "_id",
          "type": "uint256"
        }
      ],
      "name": "buyPhoto",
      "outputs": [],
      "stateMutability": "payable",
      "type": "function"
    },
    {
      "inputs": [
        {
          "internalType": "uint256",
          "name": "",
          "type": "uint256"
        }
      ],
      "name": "photos",
      "outputs": [
        {
          "internalType": "uint256",
          "name": "id",
          "type": "uint256"
        },
        {
          "internalType": "string",
          "name": "title",
          "type": "string"
        },
        {
          "internalType": "string",
          "name": "description",
          "type": "string"
        },
        {
          "internalType": "address",
          "name": "owner",
          "type": "address"
        },
        {
          "internalType": "uint256",
          "name": "price",
          "type": "uint256"
        },
        {
          "internalType": "bytes32",
          "name": "ipfsHash",
          "type": "bytes32"
        }
      ],
      "stateMutability": "view",
      "type": "function"
    }
  ],
  "bytecode": "0x608060405234801561001057600080fd5b50610e1f806100206000396000f3fe60806040526004361061003f5760003560e01c806327e235e314610044578063af2a5d6f14610081578063b2bf5826146100c3578063e3462750146100df575b600080fd5b34801561005057600080fd5b5061006b600480360381019061006691906106f3565b610108565b6040516100789190610739565b60405180910390f35b34801561008d57600080fd5b506100a860048036038101906100a39190610780565b610120565b6040516100ba9695949392919061086e565b60405180910390f35b6100dd60048036038101906100d89190610780565b61029c565b005b3480156100eb57600080fd5b5061010660048036038101906101019190610a3e565b610477565b005b60016020528060005260406000206000915090505481565b6000818154811061013057600080fd5b906000526020600020906006020160009150905080600001549080600101805461015990610b0c565b80601f016020809104026020016040519081016040528092919081815260200182805461018590610b0c565b80156101d25780601f106101a7576101008083540402835291602001916101d2565b820191906000526020600020905b8154815290600101906020018083116101b557829003601f168201915b5050505050908060020180546101e790610b0c565b80601f016020809104026020016040519081016040528092919081815260200182805461021390610b0c565b80156102605780601f1061023557610100808354040283529160200191610260565b820191906000526020600020905b81548152906001019060200180831161024357829003601f168201915b5050505050908060030160009054906101000a900473ffffffffffffffffffffffffffffffffffffffff16908060040154908060050154905086565b60008054905081106102e3576040517f08c379a00000000000000000000000000000000000000000000000000000000081526004016102da90610b8a565b60405180910390fd5b60008082815481106102f8576102f7610baa565b5b906000526020600020906006020190508060040154341461034e576040517f08c379a000000000000000000000000000000000000000000000000000000000815260040161034590610c25565b60405180910390fd5b34600160008360030160009054906101000a900473ffffffffffffffffffffffffffffffffffffffff1673ffffffffffffffffffffffffffffffffffffffff1673ffffffffffffffffffffffffffffffffffffffff16815260200190815260200160002060008282546103c19190610c74565b92505081905550338160030160006101000a81548173ffffffffffffffffffffffffffffffffffffffff021916908373ffffffffffffffffffffffffffffffffffffffff1602179055507f95cd7f2b922c0f47ccf070a497e7510f7c73f7bc2a925263fc1c25a1bf703d7d82826001018360030160009054906101000a900473ffffffffffffffffffffffffffffffffffffffff16846004015460405161046b9493929190610d5f565b60405180910390a15050565b60006040518060c0016040528060008054905081526020018681526020018581526020013373ffffffffffffffffffffffffffffffffffffffff16815260200184815260200183815250905060008190806001815401808255809150506001900390600052602060002090600602016000909190919091506000820151816000015560208201518160010190805190602001906105159291906105de565b5060408201518160020190805190602001906105329291906105de565b5060608201518160030160006101000a81548173ffffffffffffffffffffffffffffffffffffffff021916908373ffffffffffffffffffffffffffffffffffffffff1602179055506080820151816004015560a0820151816005015550507f8f2007e99e4e2d6d7f3d40d6357e851881550782a9eb108e70085686f39e84038160000151826020015183606001516040516105cf93929190610dab565b60405180910390a15050505050565b8280546105ea90610b0c565b90600052602060002090601f01602090048101928261060c5760008555610653565b82601f1061062557805160ff1916838001178555610653565b82800160010185558215610653579182015b82811115610652578251825591602001919060010190610637565b5b5090506106609190610664565b5090565b5b8082111561067d576000816000905550600101610665565b5090565b6000604051905090565b600080fd5b600080fd5b600073ffffffffffffffffffffffffffffffffffffffff82169050919050565b60006106c082610695565b9050919050565b6106d0816106b5565b81146106db57600080fd5b50565b6000813590506106ed816106c7565b92915050565b6000602082840312156107095761070861068b565b5b6000610717848285016106de565b91505092915050565b6000819050919050565b61073381610720565b82525050565b600060208201905061074e600083018461072a565b92915050565b61075d81610720565b811461076857600080fd5b50565b60008135905061077a81610754565b92915050565b6000602082840312156107965761079561068b565b5b60006107a48482850161076b565b91505092915050565b600081519050919050565b600082825260208201905092915050565b60005b838110156107e75780820151818401526020810190506107cc565b838111156107f6576000848401525b50505050565b6000601f19601f8301169050919050565b6000610818826107ad565b61082281856107b8565b93506108328185602086016107c9565b61083b816107fc565b840191505092915050565b61084f816106b5565b82525050565b6000819050919050565b61086881610855565b82525050565b600060c082019050610883600083018961072a565b8181036020830152610895818861080d565b905081810360408301526108a9818761080d565b90506108b86060830186610846565b6108c5608083018561072a565b6108d260a083018461085f565b979650505050505050565b600080fd5b600080fd5b7f4e487b7100000000000000000000000000000000000000000000000000000000600052604160045260246000fd5b61091f826107fc565b810181811067ffffffffffffffff8211171561093e5761093d6108e7565b5b80604052505050565b6000610951610681565b905061095d8282610916565b919050565b600067ffffffffffffffff82111561097d5761097c6108e7565b5b610986826107fc565b9050602081019050919050565b82818337600083830152505050565b60006109b56109b084610962565b610947565b9050828152602081018484840111156109d1576109d06108e2565b5b6109dc848285610993565b509392505050565b600082601f8301126109f9576109f86108dd565b5b8135610a098482602086016109a2565b91505092915050565b610a1b81610855565b8114610a2657600080fd5b50565b600081359050610a3881610a12565b92915050565b60008060008060808587031215610a5857610a5761068b565b5b600085013567ffffffffffffffff811115610a7657610a75610690565b5b610a82878288016109e4565b945050602085013567ffffffffffffffff811115610aa357610aa2610690565b5b610aaf878288016109e4565b9350506040610ac08782880161076b565b9250506060610ad187828801610a29565b91505092959194509250565b7f4e487b7100000000000000000000000000000000000000000000000000000000600052602260045260246000fd5b60006002820490506001821680610b2457607f821691505b60208210811415610b3857610b37610add565b5b50919050565b7f50686f746f20646f6573206e6f74206578697374000000000000000000000000600082015250565b6000610b746014836107b8565b9150610b7f82610b3e565b602082019050919050565b60006020820190508181036000830152610ba381610b67565b9050919050565b7f4e487b7100000000000000000000000000000000000000000000000000000000600052603260045260246000fd5b7f496e636f72726563742070726963650000000000000000000000000000000000600082015250565b6000610c0f600f836107b8565b9150610c1a82610bd9565b602082019050919050565b60006020820190508181036000830152610c3e81610c02565b9050919050565b7f4e487b7100000000000000000000000000000000000000000000000000000000600052601160045260246000fd5b6000610c7f82610720565b9150610c8a83610720565b9250827fffffffffffffffffffffffffffffffffffffffffffffffffffffffffffffffff03821115610cbf57610cbe610c45565b5b828201905092915050565b60008190508160005260206000209050919050565b60008154610cec81610b0c565b610cf681866107b8565b94506001821660008114610d115760018114610d2357610d56565b60ff1983168652602086019350610d56565b610d2c85610cca565b60005b83811015610d4e57815481890152600182019150602081019050610d2f565b808801955050505b50505092915050565b6000608082019050610d74600083018761072a565b8181036020830152610d868186610cdf565b9050610d956040830185610846565b610da2606083018461072a565b95945050505050565b6000606082019050610dc0600083018661072a565b8181036020830152610dd2818561080d565b9050610de16040830184610846565b94935050505056fea26469706673582212205f7916c44631ce66df20b323d1b1f82d2a08565f3651c2093e0db93a4c49c32964736f6c63430008090033",
  "linkReferences": {},
  "deployedLinkReferences": {}
}