{
  "_format": "hh-sol-artifact-1",
  "contractName": "picParadise",
  "sourceName": "contracts/picParadise.sol",
  "abi": [
    {
      "anonymous": false,
      "inputs": [
        {
          "indexed": false,
          "internalType": "uint256",
          "name": "id",
          "type": "uint256"
        },
        {
          "indexed": false,
          "internalType": "string",
          "name": "title",
          "type": "string"
        },
        {
          "indexed": false,
          "internalType": "address",
          "name": "owner",
          "type": "address"
        }
      ],
      "name": "PhotoAdded",
      "type": "event"
    },
    {
      "anonymous": false,
      "inputs": [
        {
          "indexed": false,
          "internalType": "uint256",
          "name": "id",
          "type": "uint256"
        },
        {
          "indexed": false,
          "internalType": "string",
          "name": "title",
          "type": "string"
        },
        {
          "indexed": false,
          "internalType": "address",
          "name": "owner",
          "type": "address"
        },
        {
          "indexed": false,
          "internalType": "uint256",
          "name": "price",
          "type": "uint256"
        }
      ],
      "name": "PhotoPurchased",
      "type": "event"
    },
    {
      "inputs": [
        {
          "internalType": "string",
          "name": "_title",
          "type": "string"
        },
        {
          "internalType": "string",
          "name": "_description",
          "type": "string"
        },
        {
          "internalType": "uint256",
          "name": "_price",
          "type": "uint256"
        },
        {
          "internalType": "string",
          "name": "_ipfsHash",
          "type": "string"
        }
      ],
      "name": "addPhoto",
      "outputs": [],
      "stateMutability": "nonpayable",
      "type": "function"
    },
    {
      "inputs": [
        {
          "internalType": "address",
          "name": "",
          "type": "address"
        }
      ],
      "name": "balances",
      "outputs": [
        {
          "internalType": "uint256",
          "name": "",
          "type": "uint256"
        }
      ],
      "stateMutability": "view",
      "type": "function"
    },
    {
      "inputs": [
        {
          "internalType": "uint256",
          "name": "_id",
          "type": "uint256"
        }
      ],
      "name": "buyPhoto",
      "outputs": [],
      "stateMutability": "payable",
      "type": "function"
    },
    {
      "inputs": [],
      "name": "getAllPhotos",
      "outputs": [
        {
          "components": [
            {
              "internalType": "uint256",
              "name": "id",
              "type": "uint256"
            },
            {
              "internalType": "string",
              "name": "title",
              "type": "string"
            },
            {
              "internalType": "string",
              "name": "description",
              "type": "string"
            },
            {
              "internalType": "address",
              "name": "owner",
              "type": "address"
            },
            {
              "internalType": "uint256",
              "name": "price",
              "type": "uint256"
            },
            {
              "internalType": "string",
              "name": "ipfsHash",
              "type": "string"
            }
          ],
          "internalType": "struct picParadise.Photo[]",
          "name": "",
          "type": "tuple[]"
        }
      ],
      "stateMutability": "view",
      "type": "function"
    },
    {
      "inputs": [
        {
          "internalType": "uint256",
          "name": "",
          "type": "uint256"
        }
      ],
      "name": "photos",
      "outputs": [
        {
          "internalType": "uint256",
          "name": "id",
          "type": "uint256"
        },
        {
          "internalType": "string",
          "name": "title",
          "type": "string"
        },
        {
          "internalType": "string",
          "name": "description",
          "type": "string"
        },
        {
          "internalType": "address",
          "name": "owner",
          "type": "address"
        },
        {
          "internalType": "uint256",
          "name": "price",
          "type": "uint256"
        },
        {
          "internalType": "string",
          "name": "ipfsHash",
          "type": "string"
        }
      ],
      "stateMutability": "view",
      "type": "function"
    }
  ],
  "bytecode": "0x608060405234801561001057600080fd5b506115c7806100206000396000f3fe60806040526004361061004a5760003560e01c806327e235e31461004f5780632aea45171461008c57806348c31171146100b5578063af2a5d6f146100e0578063b2bf582614610122575b600080fd5b34801561005b57600080fd5b5061007660048036038101906100719190610c91565b61013e565b6040516100839190610cd7565b60405180910390f35b34801561009857600080fd5b506100b360048036038101906100ae9190610e64565b610156565b005b3480156100c157600080fd5b506100ca6102d0565b6040516100d7919061111e565b60405180910390f35b3480156100ec57600080fd5b5061010760048036038101906101029190611140565b6105c3565b604051610119969594939291906111c6565b60405180910390f35b61013c60048036038101906101379190611140565b6107c7565b005b60016020528060005260406000206000915090505481565b60006040518060c0016040528060008054905081526020018681526020018581526020013373ffffffffffffffffffffffffffffffffffffffff16815260200184815260200183815250905060008190806001815401808255809150506001900390600052602060002090600602016000909190919091506000820151816000015560208201518160010190805190602001906101f4929190610aa3565b506040820151816002019080519060200190610211929190610aa3565b5060608201518160030160006101000a81548173ffffffffffffffffffffffffffffffffffffffff021916908373ffffffffffffffffffffffffffffffffffffffff1602179055506080820151816004015560a082015181600501908051906020019061027f929190610aa3565b5050507f8f2007e99e4e2d6d7f3d40d6357e851881550782a9eb108e70085686f39e84038160000151826020015183606001516040516102c19392919061123c565b60405180910390a15050505050565b606060008080549050905060008167ffffffffffffffff8111156102f7576102f6610d0d565b5b60405190808252806020026020018201604052801561033057816020015b61031d610b29565b8152602001906001900390816103155790505b50905060005b828110156105ba57600081815481106103525761035161127a565b5b90600052602060002090600602016040518060c001604052908160008201548152602001600182018054610385906112d8565b80601f01602080910402602001604051908101604052809291908181526020018280546103b1906112d8565b80156103fe5780601f106103d3576101008083540402835291602001916103fe565b820191906000526020600020905b8154815290600101906020018083116103e157829003601f168201915b50505050508152602001600282018054610417906112d8565b80601f0160208091040260200160405190810160405280929190818152602001828054610443906112d8565b80156104905780601f1061046557610100808354040283529160200191610490565b820191906000526020600020905b81548152906001019060200180831161047357829003601f168201915b505050505081526020016003820160009054906101000a900473ffffffffffffffffffffffffffffffffffffffff1673ffffffffffffffffffffffffffffffffffffffff1673ffffffffffffffffffffffffffffffffffffffff16815260200160048201548152602001600582018054610509906112d8565b80601f0160208091040260200160405190810160405280929190818152602001828054610535906112d8565b80156105825780601f1061055757610100808354040283529160200191610582565b820191906000526020600020905b81548152906001019060200180831161056557829003601f168201915b50505050508152505082828151811061059e5761059d61127a565b5b6020026020010181905250806105b390611339565b9050610336565b50809250505090565b600081815481106105d357600080fd5b90600052602060002090600602016000915090508060000154908060010180546105fc906112d8565b80601f0160208091040260200160405190810160405280929190818152602001828054610628906112d8565b80156106755780601f1061064a57610100808354040283529160200191610675565b820191906000526020600020905b81548152906001019060200180831161065857829003601f168201915b50505050509080600201805461068a906112d8565b80601f01602080910402602001604051908101604052809291908181526020018280546106b6906112d8565b80156107035780601f106106d857610100808354040283529160200191610703565b820191906000526020600020905b8154815290600101906020018083116106e657829003601f168201915b5050505050908060030160009054906101000a900473ffffffffffffffffffffffffffffffffffffffff1690806004015490806005018054610744906112d8565b80601f0160208091040260200160405190810160405280929190818152602001828054610770906112d8565b80156107bd5780601f10610792576101008083540402835291602001916107bd565b820191906000526020600020905b8154815290600101906020018083116107a057829003601f168201915b5050505050905086565b600080549050811061080e576040517f08c379a0000000000000000000000000000000000000000000000000000000008152600401610805906113ce565b60405180910390fd5b60008082815481106108235761082261127a565b5b9060005260206000209060060201905080600401543414610879576040517f08c379a00000000000000000000000000000000000000000000000000000000081526004016108709061143a565b60405180910390fd5b34600160008360030160009054906101000a900473ffffffffffffffffffffffffffffffffffffffff1673ffffffffffffffffffffffffffffffffffffffff1673ffffffffffffffffffffffffffffffffffffffff16815260200190815260200160002060008282546108ec919061145a565b92505081905550338160030160006101000a81548173ffffffffffffffffffffffffffffffffffffffff021916908373ffffffffffffffffffffffffffffffffffffffff160217905550806000838154811061094b5761094a61127a565b5b9060005260206000209060060201600082015481600001556001820181600101908054610977906112d8565b610982929190610b75565b506002820181600201908054610997906112d8565b6109a2929190610b75565b506003820160009054906101000a900473ffffffffffffffffffffffffffffffffffffffff168160030160006101000a81548173ffffffffffffffffffffffffffffffffffffffff021916908373ffffffffffffffffffffffffffffffffffffffff160217905550600482015481600401556005820181600501908054610a28906112d8565b610a33929190610b75565b509050507f95cd7f2b922c0f47ccf070a497e7510f7c73f7bc2a925263fc1c25a1bf703d7d82826001018360030160009054906101000a900473ffffffffffffffffffffffffffffffffffffffff168460040154604051610a979493929190611545565b60405180910390a15050565b828054610aaf906112d8565b90600052602060002090601f016020900481019282610ad15760008555610b18565b82601f10610aea57805160ff1916838001178555610b18565b82800160010185558215610b18579182015b82811115610b17578251825591602001919060010190610afc565b5b509050610b259190610c02565b5090565b6040518060c00160405280600081526020016060815260200160608152602001600073ffffffffffffffffffffffffffffffffffffffff16815260200160008152602001606081525090565b828054610b81906112d8565b90600052602060002090601f016020900481019282610ba35760008555610bf1565b82601f10610bb45780548555610bf1565b82800160010185558215610bf157600052602060002091601f016020900482015b82811115610bf0578254825591600101919060010190610bd5565b5b509050610bfe9190610c02565b5090565b5b80821115610c1b576000816000905550600101610c03565b5090565b6000604051905090565b600080fd5b600080fd5b600073ffffffffffffffffffffffffffffffffffffffff82169050919050565b6000610c5e82610c33565b9050919050565b610c6e81610c53565b8114610c7957600080fd5b50565b600081359050610c8b81610c65565b92915050565b600060208284031215610ca757610ca6610c29565b5b6000610cb584828501610c7c565b91505092915050565b6000819050919050565b610cd181610cbe565b82525050565b6000602082019050610cec6000830184610cc8565b92915050565b600080fd5b600080fd5b6000601f19601f8301169050919050565b7f4e487b7100000000000000000000000000000000000000000000000000000000600052604160045260246000fd5b610d4582610cfc565b810181811067ffffffffffffffff82111715610d6457610d63610d0d565b5b80604052505050565b6000610d77610c1f565b9050610d838282610d3c565b919050565b600067ffffffffffffffff821115610da357610da2610d0d565b5b610dac82610cfc565b9050602081019050919050565b82818337600083830152505050565b6000610ddb610dd684610d88565b610d6d565b905082815260208101848484011115610df757610df6610cf7565b5b610e02848285610db9565b509392505050565b600082601f830112610e1f57610e1e610cf2565b5b8135610e2f848260208601610dc8565b91505092915050565b610e4181610cbe565b8114610e4c57600080fd5b50565b600081359050610e5e81610e38565b92915050565b60008060008060808587031215610e7e57610e7d610c29565b5b600085013567ffffffffffffffff811115610e9c57610e9b610c2e565b5b610ea887828801610e0a565b945050602085013567ffffffffffffffff811115610ec957610ec8610c2e565b5b610ed587828801610e0a565b9350506040610ee687828801610e4f565b925050606085013567ffffffffffffffff811115610f0757610f06610c2e565b5b610f1387828801610e0a565b91505092959194509250565b600081519050919050565b600082825260208201905092915050565b6000819050602082019050919050565b610f5481610cbe565b82525050565b600081519050919050565b600082825260208201905092915050565b60005b83811015610f94578082015181840152602081019050610f79565b83811115610fa3576000848401525b50505050565b6000610fb482610f5a565b610fbe8185610f65565b9350610fce818560208601610f76565b610fd781610cfc565b840191505092915050565b610feb81610c53565b82525050565b600060c0830160008301516110096000860182610f4b565b50602083015184820360208601526110218282610fa9565b9150506040830151848203604086015261103b8282610fa9565b91505060608301516110506060860182610fe2565b5060808301516110636080860182610f4b565b5060a083015184820360a086015261107b8282610fa9565b9150508091505092915050565b60006110948383610ff1565b905092915050565b6000602082019050919050565b60006110b482610f1f565b6110be8185610f2a565b9350836020820285016110d085610f3b565b8060005b8581101561110c57848403895281516110ed8582611088565b94506110f88361109c565b925060208a019950506001810190506110d4565b50829750879550505050505092915050565b6000602082019050818103600083015261113881846110a9565b905092915050565b60006020828403121561115657611155610c29565b5b600061116484828501610e4f565b91505092915050565b600082825260208201905092915050565b600061118982610f5a565b611193818561116d565b93506111a3818560208601610f76565b6111ac81610cfc565b840191505092915050565b6111c081610c53565b82525050565b600060c0820190506111db6000830189610cc8565b81810360208301526111ed818861117e565b90508181036040830152611201818761117e565b905061121060608301866111b7565b61121d6080830185610cc8565b81810360a083015261122f818461117e565b9050979650505050505050565b60006060820190506112516000830186610cc8565b8181036020830152611263818561117e565b905061127260408301846111b7565b949350505050565b7f4e487b7100000000000000000000000000000000000000000000000000000000600052603260045260246000fd5b7f4e487b7100000000000000000000000000000000000000000000000000000000600052602260045260246000fd5b600060028204905060018216806112f057607f821691505b60208210811415611304576113036112a9565b5b50919050565b7f4e487b7100000000000000000000000000000000000000000000000000000000600052601160045260246000fd5b600061134482610cbe565b91507fffffffffffffffffffffffffffffffffffffffffffffffffffffffffffffffff8214156113775761137661130a565b5b600182019050919050565b7f50686f746f20646f6573206e6f74206578697374000000000000000000000000600082015250565b60006113b860148361116d565b91506113c382611382565b602082019050919050565b600060208201905081810360008301526113e7816113ab565b9050919050565b7f496e636f72726563742070726963650000000000000000000000000000000000600082015250565b6000611424600f8361116d565b915061142f826113ee565b602082019050919050565b6000602082019050818103600083015261145381611417565b9050919050565b600061146582610cbe565b915061147083610cbe565b9250827fffffffffffffffffffffffffffffffffffffffffffffffffffffffffffffffff038211156114a5576114a461130a565b5b828201905092915050565b60008190508160005260206000209050919050565b600081546114d2816112d8565b6114dc818661116d565b945060018216600081146114f757600181146115095761153c565b60ff198316865260208601935061153c565b611512856114b0565b60005b8381101561153457815481890152600182019150602081019050611515565b808801955050505b50505092915050565b600060808201905061155a6000830187610cc8565b818103602083015261156c81866114c5565b905061157b60408301856111b7565b6115886060830184610cc8565b9594505050505056fea2646970667358221220b0945f2c83e06bd3f1f9e8c6634af0c52a69e442b4ed4a9636b01574661bb11964736f6c63430008090033",
  "linkReferences": {},
  "deployedLinkReferences": {}
}